{
  "_format": "hh-sol-artifact-1",
  "contractName": "MyToken",
  "sourceName": "contracts/NFT.sol",
  "abi": [
    {
      "inputs": [],
      "stateMutability": "nonpayable",
      "type": "constructor"
    },
    {
      "anonymous": false,
      "inputs": [
        {
          "indexed": true,
          "internalType": "address",
          "name": "owner",
          "type": "address"
        },
        {
          "indexed": true,
          "internalType": "address",
          "name": "approved",
          "type": "address"
        },
        {
          "indexed": true,
          "internalType": "uint256",
          "name": "tokenId",
          "type": "uint256"
        }
      ],
      "name": "Approval",
      "type": "event"
    },
    {
      "anonymous": false,
      "inputs": [
        {
          "indexed": true,
          "internalType": "address",
          "name": "owner",
          "type": "address"
        },
        {
          "indexed": true,
          "internalType": "address",
          "name": "operator",
          "type": "address"
        },
        {
          "indexed": false,
          "internalType": "bool",
          "name": "approved",
          "type": "bool"
        }
      ],
      "name": "ApprovalForAll",
      "type": "event"
    },
    {
      "anonymous": false,
      "inputs": [
        {
          "indexed": true,
          "internalType": "address",
          "name": "previousOwner",
          "type": "address"
        },
        {
          "indexed": true,
          "internalType": "address",
          "name": "newOwner",
          "type": "address"
        }
      ],
      "name": "OwnershipTransferred",
      "type": "event"
    },
    {
      "anonymous": false,
      "inputs": [
        {
          "indexed": true,
          "internalType": "address",
          "name": "from",
          "type": "address"
        },
        {
          "indexed": true,
          "internalType": "address",
          "name": "to",
          "type": "address"
        },
        {
          "indexed": true,
          "internalType": "uint256",
          "name": "tokenId",
          "type": "uint256"
        }
      ],
      "name": "Transfer",
      "type": "event"
    },
    {
      "inputs": [
        {
          "internalType": "address",
          "name": "to",
          "type": "address"
        },
        {
          "internalType": "uint256",
          "name": "tokenId",
          "type": "uint256"
        }
      ],
      "name": "approve",
      "outputs": [],
      "stateMutability": "nonpayable",
      "type": "function"
    },
    {
      "inputs": [
        {
          "internalType": "address",
          "name": "owner",
          "type": "address"
        }
      ],
      "name": "balanceOf",
      "outputs": [
        {
          "internalType": "uint256",
          "name": "",
          "type": "uint256"
        }
      ],
      "stateMutability": "view",
      "type": "function"
    },
    {
      "inputs": [
        {
          "internalType": "uint256",
          "name": "tokenId",
          "type": "uint256"
        }
      ],
      "name": "getApproved",
      "outputs": [
        {
          "internalType": "address",
          "name": "",
          "type": "address"
        }
      ],
      "stateMutability": "view",
      "type": "function"
    },
    {
      "inputs": [
        {
          "internalType": "address",
          "name": "owner",
          "type": "address"
        },
        {
          "internalType": "address",
          "name": "operator",
          "type": "address"
        }
      ],
      "name": "isApprovedForAll",
      "outputs": [
        {
          "internalType": "bool",
          "name": "",
          "type": "bool"
        }
      ],
      "stateMutability": "view",
      "type": "function"
    },
    {
      "inputs": [],
      "name": "name",
      "outputs": [
        {
          "internalType": "string",
          "name": "",
          "type": "string"
        }
      ],
      "stateMutability": "view",
      "type": "function"
    },
    {
      "inputs": [],
      "name": "owner",
      "outputs": [
        {
          "internalType": "address",
          "name": "",
          "type": "address"
        }
      ],
      "stateMutability": "view",
      "type": "function"
    },
    {
      "inputs": [
        {
          "internalType": "uint256",
          "name": "tokenId",
          "type": "uint256"
        }
      ],
      "name": "ownerOf",
      "outputs": [
        {
          "internalType": "address",
          "name": "",
          "type": "address"
        }
      ],
      "stateMutability": "view",
      "type": "function"
    },
    {
      "inputs": [],
      "name": "renounceOwnership",
      "outputs": [],
      "stateMutability": "nonpayable",
      "type": "function"
    },
    {
      "inputs": [
        {
          "internalType": "address",
          "name": "to",
          "type": "address"
        },
        {
          "internalType": "uint256",
          "name": "tokenId",
          "type": "uint256"
        },
        {
          "internalType": "string",
          "name": "uri",
          "type": "string"
        }
      ],
      "name": "safeMint",
      "outputs": [],
      "stateMutability": "nonpayable",
      "type": "function"
    },
    {
      "inputs": [
        {
          "internalType": "address",
          "name": "from",
          "type": "address"
        },
        {
          "internalType": "address",
          "name": "to",
          "type": "address"
        },
        {
          "internalType": "uint256",
          "name": "tokenId",
          "type": "uint256"
        }
      ],
      "name": "safeTransferFrom",
      "outputs": [],
      "stateMutability": "nonpayable",
      "type": "function"
    },
    {
      "inputs": [
        {
          "internalType": "address",
          "name": "from",
          "type": "address"
        },
        {
          "internalType": "address",
          "name": "to",
          "type": "address"
        },
        {
          "internalType": "uint256",
          "name": "tokenId",
          "type": "uint256"
        },
        {
          "internalType": "bytes",
          "name": "data",
          "type": "bytes"
        }
      ],
      "name": "safeTransferFrom",
      "outputs": [],
      "stateMutability": "nonpayable",
      "type": "function"
    },
    {
      "inputs": [
        {
          "internalType": "address",
          "name": "operator",
          "type": "address"
        },
        {
          "internalType": "bool",
          "name": "approved",
          "type": "bool"
        }
      ],
      "name": "setApprovalForAll",
      "outputs": [],
      "stateMutability": "nonpayable",
      "type": "function"
    },
    {
      "inputs": [
        {
          "internalType": "bytes4",
          "name": "interfaceId",
          "type": "bytes4"
        }
      ],
      "name": "supportsInterface",
      "outputs": [
        {
          "internalType": "bool",
          "name": "",
          "type": "bool"
        }
      ],
      "stateMutability": "view",
      "type": "function"
    },
    {
      "inputs": [],
      "name": "symbol",
      "outputs": [
        {
          "internalType": "string",
          "name": "",
          "type": "string"
        }
      ],
      "stateMutability": "view",
      "type": "function"
    },
    {
      "inputs": [
        {
          "internalType": "uint256",
          "name": "tokenId",
          "type": "uint256"
        }
      ],
      "name": "tokenURI",
      "outputs": [
        {
          "internalType": "string",
          "name": "",
          "type": "string"
        }
      ],
      "stateMutability": "view",
      "type": "function"
    },
    {
      "inputs": [
        {
          "internalType": "address",
          "name": "from",
          "type": "address"
        },
        {
          "internalType": "address",
          "name": "to",
          "type": "address"
        },
        {
          "internalType": "uint256",
          "name": "tokenId",
          "type": "uint256"
        }
      ],
      "name": "transferFrom",
      "outputs": [],
      "stateMutability": "nonpayable",
      "type": "function"
    },
    {
      "inputs": [
        {
          "internalType": "address",
          "name": "newOwner",
          "type": "address"
        }
      ],
      "name": "transferOwnership",
      "outputs": [],
      "stateMutability": "nonpayable",
      "type": "function"
    }
  ],
  "bytecode": "0x60806040523480156200001157600080fd5b506040518060400160405280600781526020017f4d79546f6b656e000000000000000000000000000000000000000000000000008152506040518060400160405280600381526020017f4d544b0000000000000000000000000000000000000000000000000000000000815250816000908051906020019062000096929190620001a6565b508060019080519060200190620000af929190620001a6565b505050620000d2620000c6620000d860201b60201c565b620000e060201b60201c565b620002bb565b600033905090565b6000600760009054906101000a900473ffffffffffffffffffffffffffffffffffffffff16905081600760006101000a81548173ffffffffffffffffffffffffffffffffffffffff021916908373ffffffffffffffffffffffffffffffffffffffff1602179055508173ffffffffffffffffffffffffffffffffffffffff168173ffffffffffffffffffffffffffffffffffffffff167f8be0079c531659141344cd1fd0a4f28419497f9722a3daafe3b4186f6b6457e060405160405180910390a35050565b828054620001b49062000256565b90600052602060002090601f016020900481019282620001d8576000855562000224565b82601f10620001f357805160ff191683800117855562000224565b8280016001018555821562000224579182015b828111156200022357825182559160200191906001019062000206565b5b50905062000233919062000237565b5090565b5b808211156200025257600081600090555060010162000238565b5090565b600060028204905060018216806200026f57607f821691505b602082108114156200028657620002856200028c565b5b50919050565b7f4e487b7100000000000000000000000000000000000000000000000000000000600052602260045260246000fd5b612af180620002cb6000396000f3fe608060405234801561001057600080fd5b506004361061010b5760003560e01c8063715018a6116100a2578063b88d4fde11610071578063b88d4fde146102a4578063c87b56dd146102c0578063cd279c7c146102f0578063e985e9c51461030c578063f2fde38b1461033c5761010b565b8063715018a6146102425780638da5cb5b1461024c57806395d89b411461026a578063a22cb465146102885761010b565b806323b872dd116100de57806323b872dd146101aa57806342842e0e146101c65780636352211e146101e257806370a08231146102125761010b565b806301ffc9a71461011057806306fdde0314610140578063081812fc1461015e578063095ea7b31461018e575b600080fd5b61012a60048036038101906101259190611d4a565b610358565b6040516101379190612110565b60405180910390f35b61014861043a565b604051610155919061212b565b60405180910390f35b61017860048036038101906101739190611d9c565b6104cc565b60405161018591906120a9565b60405180910390f35b6101a860048036038101906101a39190611ca7565b610512565b005b6101c460048036038101906101bf9190611ba1565b61062a565b005b6101e060048036038101906101db9190611ba1565b61068a565b005b6101fc60048036038101906101f79190611d9c565b6106aa565b60405161020991906120a9565b60405180910390f35b61022c60048036038101906102279190611b3c565b610731565b604051610239919061232d565b60405180910390f35b61024a6107e9565b005b6102546107fd565b60405161026191906120a9565b60405180910390f35b610272610827565b60405161027f919061212b565b60405180910390f35b6102a2600480360381019061029d9190611c6b565b6108b9565b005b6102be60048036038101906102b99190611bf0565b6108cf565b005b6102da60048036038101906102d59190611d9c565b610931565b6040516102e7919061212b565b60405180910390f35b61030a60048036038101906103059190611ce3565b6109a6565b005b61032660048036038101906103219190611b65565b6109c7565b6040516103339190612110565b60405180910390f35b61035660048036038101906103519190611b3c565b610a5b565b005b60007f80ac58cd000000000000000000000000000000000000000000000000000000007bffffffffffffffffffffffffffffffffffffffffffffffffffffffff1916827bffffffffffffffffffffffffffffffffffffffffffffffffffffffff1916148061042357507f5b5e139f000000000000000000000000000000000000000000000000000000007bffffffffffffffffffffffffffffffffffffffffffffffffffffffff1916827bffffffffffffffffffffffffffffffffffffffffffffffffffffffff1916145b80610433575061043282610adf565b5b9050919050565b60606000805461044990612552565b80601f016020809104026020016040519081016040528092919081815260200182805461047590612552565b80156104c25780601f10610497576101008083540402835291602001916104c2565b820191906000526020600020905b8154815290600101906020018083116104a557829003601f168201915b5050505050905090565b60006104d782610b49565b6004600083815260200190815260200160002060009054906101000a900473ffffffffffffffffffffffffffffffffffffffff169050919050565b600061051d826106aa565b90508073ffffffffffffffffffffffffffffffffffffffff168373ffffffffffffffffffffffffffffffffffffffff16141561058e576040517f08c379a0000000000000000000000000000000000000000000000000000000008152600401610585906122ed565b60405180910390fd5b8073ffffffffffffffffffffffffffffffffffffffff166105ad610b94565b73ffffffffffffffffffffffffffffffffffffffff1614806105dc57506105db816105d6610b94565b6109c7565b5b61061b576040517f08c379a00000000000000000000000000000000000000000000000000000000081526004016106129061230d565b60405180910390fd5b6106258383610b9c565b505050565b61063b610635610b94565b82610c55565b61067a576040517f08c379a00000000000000000000000000000000000000000000000000000000081526004016106719061214d565b60405180910390fd5b610685838383610cea565b505050565b6106a5838383604051806020016040528060008152506108cf565b505050565b6000806106b683610fe4565b9050600073ffffffffffffffffffffffffffffffffffffffff168173ffffffffffffffffffffffffffffffffffffffff161415610728576040517f08c379a000000000000000000000000000000000000000000000000000000000815260040161071f906122cd565b60405180910390fd5b80915050919050565b60008073ffffffffffffffffffffffffffffffffffffffff168273ffffffffffffffffffffffffffffffffffffffff1614156107a2576040517f08c379a00000000000000000000000000000000000000000000000000000000081526004016107999061222d565b60405180910390fd5b600360008373ffffffffffffffffffffffffffffffffffffffff1673ffffffffffffffffffffffffffffffffffffffff168152602001908152602001600020549050919050565b6107f1611021565b6107fb600061109f565b565b6000600760009054906101000a900473ffffffffffffffffffffffffffffffffffffffff16905090565b60606001805461083690612552565b80601f016020809104026020016040519081016040528092919081815260200182805461086290612552565b80156108af5780601f10610884576101008083540402835291602001916108af565b820191906000526020600020905b81548152906001019060200180831161089257829003601f168201915b5050505050905090565b6108cb6108c4610b94565b8383611165565b5050565b6108e06108da610b94565b83610c55565b61091f576040517f08c379a00000000000000000000000000000000000000000000000000000000081526004016109169061214d565b60405180910390fd5b61092b848484846112d2565b50505050565b606061093c8261132e565b61097b576040517f08c379a0000000000000000000000000000000000000000000000000000000008152600401610972906122ad565b60405180910390fd5b600060405160200161098c90612094565b604051602081830303815290604052905080915050919050565b6109ae611021565b6109b8838361136f565b6109c2828261138d565b505050565b6000600560008473ffffffffffffffffffffffffffffffffffffffff1673ffffffffffffffffffffffffffffffffffffffff16815260200190815260200160002060008373ffffffffffffffffffffffffffffffffffffffff1673ffffffffffffffffffffffffffffffffffffffff16815260200190815260200160002060009054906101000a900460ff16905092915050565b610a63611021565b600073ffffffffffffffffffffffffffffffffffffffff168173ffffffffffffffffffffffffffffffffffffffff161415610ad3576040517f08c379a0000000000000000000000000000000000000000000000000000000008152600401610aca9061218d565b60405180910390fd5b610adc8161109f565b50565b60007f01ffc9a7000000000000000000000000000000000000000000000000000000007bffffffffffffffffffffffffffffffffffffffffffffffffffffffff1916827bffffffffffffffffffffffffffffffffffffffffffffffffffffffff1916149050919050565b610b528161132e565b610b91576040517f08c379a0000000000000000000000000000000000000000000000000000000008152600401610b88906122cd565b60405180910390fd5b50565b600033905090565b816004600083815260200190815260200160002060006101000a81548173ffffffffffffffffffffffffffffffffffffffff021916908373ffffffffffffffffffffffffffffffffffffffff160217905550808273ffffffffffffffffffffffffffffffffffffffff16610c0f836106aa565b73ffffffffffffffffffffffffffffffffffffffff167f8c5be1e5ebec7d5bd14f71427d1e84f3dd0314c0f7b2291e5b200ac8c7c3b92560405160405180910390a45050565b600080610c61836106aa565b90508073ffffffffffffffffffffffffffffffffffffffff168473ffffffffffffffffffffffffffffffffffffffff161480610ca35750610ca281856109c7565b5b80610ce157508373ffffffffffffffffffffffffffffffffffffffff16610cc9846104cc565b73ffffffffffffffffffffffffffffffffffffffff16145b91505092915050565b8273ffffffffffffffffffffffffffffffffffffffff16610d0a826106aa565b73ffffffffffffffffffffffffffffffffffffffff1614610d60576040517f08c379a0000000000000000000000000000000000000000000000000000000008152600401610d57906121ad565b60405180910390fd5b600073ffffffffffffffffffffffffffffffffffffffff168273ffffffffffffffffffffffffffffffffffffffff161415610dd0576040517f08c379a0000000000000000000000000000000000000000000000000000000008152600401610dc7906121ed565b60405180910390fd5b610ddd8383836001611401565b8273ffffffffffffffffffffffffffffffffffffffff16610dfd826106aa565b73ffffffffffffffffffffffffffffffffffffffff1614610e53576040517f08c379a0000000000000000000000000000000000000000000000000000000008152600401610e4a906121ad565b60405180910390fd5b6004600082815260200190815260200160002060006101000a81549073ffffffffffffffffffffffffffffffffffffffff02191690556001600360008573ffffffffffffffffffffffffffffffffffffffff1673ffffffffffffffffffffffffffffffffffffffff168152602001908152602001600020600082825403925050819055506001600360008473ffffffffffffffffffffffffffffffffffffffff1673ffffffffffffffffffffffffffffffffffffffff16815260200190815260200160002060008282540192505081905550816002600083815260200190815260200160002060006101000a81548173ffffffffffffffffffffffffffffffffffffffff021916908373ffffffffffffffffffffffffffffffffffffffff160217905550808273ffffffffffffffffffffffffffffffffffffffff168473ffffffffffffffffffffffffffffffffffffffff167fddf252ad1be2c89b69c2b068fc378daa952ba7f163c4a11628f55a4df523b3ef60405160405180910390a4610fdf8383836001611527565b505050565b60006002600083815260200190815260200160002060009054906101000a900473ffffffffffffffffffffffffffffffffffffffff169050919050565b611029610b94565b73ffffffffffffffffffffffffffffffffffffffff166110476107fd565b73ffffffffffffffffffffffffffffffffffffffff161461109d576040517f08c379a00000000000000000000000000000000000000000000000000000000081526004016110949061228d565b60405180910390fd5b565b6000600760009054906101000a900473ffffffffffffffffffffffffffffffffffffffff16905081600760006101000a81548173ffffffffffffffffffffffffffffffffffffffff021916908373ffffffffffffffffffffffffffffffffffffffff1602179055508173ffffffffffffffffffffffffffffffffffffffff168173ffffffffffffffffffffffffffffffffffffffff167f8be0079c531659141344cd1fd0a4f28419497f9722a3daafe3b4186f6b6457e060405160405180910390a35050565b8173ffffffffffffffffffffffffffffffffffffffff168373ffffffffffffffffffffffffffffffffffffffff1614156111d4576040517f08c379a00000000000000000000000000000000000000000000000000000000081526004016111cb9061220d565b60405180910390fd5b80600560008573ffffffffffffffffffffffffffffffffffffffff1673ffffffffffffffffffffffffffffffffffffffff16815260200190815260200160002060008473ffffffffffffffffffffffffffffffffffffffff1673ffffffffffffffffffffffffffffffffffffffff16815260200190815260200160002060006101000a81548160ff0219169083151502179055508173ffffffffffffffffffffffffffffffffffffffff168373ffffffffffffffffffffffffffffffffffffffff167f17307eab39ab6107e8899845ad3d59bd9653f200f220920489ca2b5937696c31836040516112c59190612110565b60405180910390a3505050565b6112dd848484610cea565b6112e98484848461152d565b611328576040517f08c379a000000000000000000000000000000000000000000000000000000000815260040161131f9061216d565b60405180910390fd5b50505050565b60008073ffffffffffffffffffffffffffffffffffffffff1661135083610fe4565b73ffffffffffffffffffffffffffffffffffffffff1614159050919050565b6113898282604051806020016040528060008152506116c4565b5050565b6113968261132e565b6113d5576040517f08c379a00000000000000000000000000000000000000000000000000000000081526004016113cc9061224d565b60405180910390fd5b806006600084815260200190815260200160002090805190602001906113fc929190611960565b505050565b600181111561152157600073ffffffffffffffffffffffffffffffffffffffff168473ffffffffffffffffffffffffffffffffffffffff16146114955780600360008673ffffffffffffffffffffffffffffffffffffffff1673ffffffffffffffffffffffffffffffffffffffff168152602001908152602001600020600082825461148d9190612468565b925050819055505b600073ffffffffffffffffffffffffffffffffffffffff168373ffffffffffffffffffffffffffffffffffffffff16146115205780600360008573ffffffffffffffffffffffffffffffffffffffff1673ffffffffffffffffffffffffffffffffffffffff16815260200190815260200160002060008282546115189190612412565b925050819055505b5b50505050565b50505050565b600061154e8473ffffffffffffffffffffffffffffffffffffffff1661171f565b156116b7578373ffffffffffffffffffffffffffffffffffffffff1663150b7a02611577610b94565b8786866040518563ffffffff1660e01b815260040161159994939291906120c4565b602060405180830381600087803b1580156115b357600080fd5b505af19250505080156115e457506040513d601f19601f820116820180604052508101906115e19190611d73565b60015b611667573d8060008114611614576040519150601f19603f3d011682016040523d82523d6000602084013e611619565b606091505b5060008151141561165f576040517f08c379a00000000000000000000000000000000000000000000000000000000081526004016116569061216d565b60405180910390fd5b805181602001fd5b63150b7a0260e01b7bffffffffffffffffffffffffffffffffffffffffffffffffffffffff1916817bffffffffffffffffffffffffffffffffffffffffffffffffffffffff1916149150506116bc565b600190505b949350505050565b6116ce8383611742565b6116db600084848461152d565b61171a576040517f08c379a00000000000000000000000000000000000000000000000000000000081526004016117119061216d565b60405180910390fd5b505050565b6000808273ffffffffffffffffffffffffffffffffffffffff163b119050919050565b600073ffffffffffffffffffffffffffffffffffffffff168273ffffffffffffffffffffffffffffffffffffffff1614156117b2576040517f08c379a00000000000000000000000000000000000000000000000000000000081526004016117a99061226d565b60405180910390fd5b6117bb8161132e565b156117fb576040517f08c379a00000000000000000000000000000000000000000000000000000000081526004016117f2906121cd565b60405180910390fd5b611809600083836001611401565b6118128161132e565b15611852576040517f08c379a0000000000000000000000000000000000000000000000000000000008152600401611849906121cd565b60405180910390fd5b6001600360008473ffffffffffffffffffffffffffffffffffffffff1673ffffffffffffffffffffffffffffffffffffffff16815260200190815260200160002060008282540192505081905550816002600083815260200190815260200160002060006101000a81548173ffffffffffffffffffffffffffffffffffffffff021916908373ffffffffffffffffffffffffffffffffffffffff160217905550808273ffffffffffffffffffffffffffffffffffffffff16600073ffffffffffffffffffffffffffffffffffffffff167fddf252ad1be2c89b69c2b068fc378daa952ba7f163c4a11628f55a4df523b3ef60405160405180910390a461195c600083836001611527565b5050565b82805461196c90612552565b90600052602060002090601f01602090048101928261198e57600085556119d5565b82601f106119a757805160ff19168380011785556119d5565b828001600101855582156119d5579182015b828111156119d45782518255916020019190600101906119b9565b5b5090506119e291906119e6565b5090565b5b808211156119ff5760008160009055506001016119e7565b5090565b6000611a16611a118461236d565b612348565b905082815260208101848484011115611a2e57600080fd5b611a39848285612510565b509392505050565b6000611a54611a4f8461239e565b612348565b905082815260208101848484011115611a6c57600080fd5b611a77848285612510565b509392505050565b600081359050611a8e81612a5f565b92915050565b600081359050611aa381612a76565b92915050565b600081359050611ab881612a8d565b92915050565b600081519050611acd81612a8d565b92915050565b600082601f830112611ae457600080fd5b8135611af4848260208601611a03565b91505092915050565b600082601f830112611b0e57600080fd5b8135611b1e848260208601611a41565b91505092915050565b600081359050611b3681612aa4565b92915050565b600060208284031215611b4e57600080fd5b6000611b5c84828501611a7f565b91505092915050565b60008060408385031215611b7857600080fd5b6000611b8685828601611a7f565b9250506020611b9785828601611a7f565b9150509250929050565b600080600060608486031215611bb657600080fd5b6000611bc486828701611a7f565b9350506020611bd586828701611a7f565b9250506040611be686828701611b27565b9150509250925092565b60008060008060808587031215611c0657600080fd5b6000611c1487828801611a7f565b9450506020611c2587828801611a7f565b9350506040611c3687828801611b27565b925050606085013567ffffffffffffffff811115611c5357600080fd5b611c5f87828801611ad3565b91505092959194509250565b60008060408385031215611c7e57600080fd5b6000611c8c85828601611a7f565b9250506020611c9d85828601611a94565b9150509250929050565b60008060408385031215611cba57600080fd5b6000611cc885828601611a7f565b9250506020611cd985828601611b27565b9150509250929050565b600080600060608486031215611cf857600080fd5b6000611d0686828701611a7f565b9350506020611d1786828701611b27565b925050604084013567ffffffffffffffff811115611d3457600080fd5b611d4086828701611afd565b9150509250925092565b600060208284031215611d5c57600080fd5b6000611d6a84828501611aa9565b91505092915050565b600060208284031215611d8557600080fd5b6000611d9384828501611abe565b91505092915050565b600060208284031215611dae57600080fd5b6000611dbc84828501611b27565b91505092915050565b611dce8161249c565b82525050565b611ddd816124ae565b82525050565b6000611dee826123cf565b611df881856123e5565b9350611e0881856020860161251f565b611e1181612642565b840191505092915050565b6000611e27826123da565b611e3181856123f6565b9350611e4181856020860161251f565b611e4a81612642565b840191505092915050565b6000611e62602d836123f6565b9150611e6d82612653565b604082019050919050565b6000611e856032836123f6565b9150611e90826126a2565b604082019050919050565b6000611ea86026836123f6565b9150611eb3826126f1565b604082019050919050565b6000611ecb6025836123f6565b9150611ed682612740565b604082019050919050565b6000611eee601c836123f6565b9150611ef98261278f565b602082019050919050565b6000611f116024836123f6565b9150611f1c826127b8565b604082019050919050565b6000611f346019836123f6565b9150611f3f82612807565b602082019050919050565b6000611f57601483612407565b9150611f6282612830565b601482019050919050565b6000611f7a6029836123f6565b9150611f8582612859565b604082019050919050565b6000611f9d602e836123f6565b9150611fa8826128a8565b604082019050919050565b6000611fc06020836123f6565b9150611fcb826128f7565b602082019050919050565b6000611fe36020836123f6565b9150611fee82612920565b602082019050919050565b6000612006602f836123f6565b915061201182612949565b604082019050919050565b60006120296018836123f6565b915061203482612998565b602082019050919050565b600061204c6021836123f6565b9150612057826129c1565b604082019050919050565b600061206f603d836123f6565b915061207a82612a10565b604082019050919050565b61208e81612506565b82525050565b600061209f82611f4a565b9150819050919050565b60006020820190506120be6000830184611dc5565b92915050565b60006080820190506120d96000830187611dc5565b6120e66020830186611dc5565b6120f36040830185612085565b81810360608301526121058184611de3565b905095945050505050565b60006020820190506121256000830184611dd4565b92915050565b600060208201905081810360008301526121458184611e1c565b905092915050565b6000602082019050818103600083015261216681611e55565b9050919050565b6000602082019050818103600083015261218681611e78565b9050919050565b600060208201905081810360008301526121a681611e9b565b9050919050565b600060208201905081810360008301526121c681611ebe565b9050919050565b600060208201905081810360008301526121e681611ee1565b9050919050565b6000602082019050818103600083015261220681611f04565b9050919050565b6000602082019050818103600083015261222681611f27565b9050919050565b6000602082019050818103600083015261224681611f6d565b9050919050565b6000602082019050818103600083015261226681611f90565b9050919050565b6000602082019050818103600083015261228681611fb3565b9050919050565b600060208201905081810360008301526122a681611fd6565b9050919050565b600060208201905081810360008301526122c681611ff9565b9050919050565b600060208201905081810360008301526122e68161201c565b9050919050565b600060208201905081810360008301526123068161203f565b9050919050565b6000602082019050818103600083015261232681612062565b9050919050565b60006020820190506123426000830184612085565b92915050565b6000612352612363565b905061235e8282612584565b919050565b6000604051905090565b600067ffffffffffffffff82111561238857612387612613565b5b61239182612642565b9050602081019050919050565b600067ffffffffffffffff8211156123b9576123b8612613565b5b6123c282612642565b9050602081019050919050565b600081519050919050565b600081519050919050565b600082825260208201905092915050565b600082825260208201905092915050565b600081905092915050565b600061241d82612506565b915061242883612506565b9250827fffffffffffffffffffffffffffffffffffffffffffffffffffffffffffffffff0382111561245d5761245c6125b5565b5b828201905092915050565b600061247382612506565b915061247e83612506565b925082821015612491576124906125b5565b5b828203905092915050565b60006124a7826124e6565b9050919050565b60008115159050919050565b60007fffffffff0000000000000000000000000000000000000000000000000000000082169050919050565b600073ffffffffffffffffffffffffffffffffffffffff82169050919050565b6000819050919050565b82818337600083830152505050565b60005b8381101561253d578082015181840152602081019050612522565b8381111561254c576000848401525b50505050565b6000600282049050600182168061256a57607f821691505b6020821081141561257e5761257d6125e4565b5b50919050565b61258d82612642565b810181811067ffffffffffffffff821117156125ac576125ab612613565b5b80604052505050565b7f4e487b7100000000000000000000000000000000000000000000000000000000600052601160045260246000fd5b7f4e487b7100000000000000000000000000000000000000000000000000000000600052602260045260246000fd5b7f4e487b7100000000000000000000000000000000000000000000000000000000600052604160045260246000fd5b6000601f19601f8301169050919050565b7f4552433732313a2063616c6c6572206973206e6f7420746f6b656e206f776e6560008201527f72206f7220617070726f76656400000000000000000000000000000000000000602082015250565b7f4552433732313a207472616e7366657220746f206e6f6e20455243373231526560008201527f63656976657220696d706c656d656e7465720000000000000000000000000000602082015250565b7f4f776e61626c653a206e6577206f776e657220697320746865207a65726f206160008201527f6464726573730000000000000000000000000000000000000000000000000000602082015250565b7f4552433732313a207472616e736665722066726f6d20696e636f72726563742060008201527f6f776e6572000000000000000000000000000000000000000000000000000000602082015250565b7f4552433732313a20746f6b656e20616c7265616479206d696e74656400000000600082015250565b7f4552433732313a207472616e7366657220746f20746865207a65726f2061646460008201527f7265737300000000000000000000000000000000000000000000000000000000602082015250565b7f4552433732313a20617070726f766520746f2063616c6c657200000000000000600082015250565b7f7b226e616d65223a202248656c6c6f4e4654227d000000000000000000000000600082015250565b7f4552433732313a2061646472657373207a65726f206973206e6f74206120766160008201527f6c6964206f776e65720000000000000000000000000000000000000000000000602082015250565b7f45524337323155524953746f726167653a2055524920736574206f66206e6f6e60008201527f6578697374656e7420746f6b656e000000000000000000000000000000000000602082015250565b7f4552433732313a206d696e7420746f20746865207a65726f2061646472657373600082015250565b7f4f776e61626c653a2063616c6c6572206973206e6f7420746865206f776e6572600082015250565b7f4552433732314d657461646174613a2055524920717565727920666f72206e6f60008201527f6e6578697374656e7420746f6b656e0000000000000000000000000000000000602082015250565b7f4552433732313a20696e76616c696420746f6b656e2049440000000000000000600082015250565b7f4552433732313a20617070726f76616c20746f2063757272656e74206f776e6560008201527f7200000000000000000000000000000000000000000000000000000000000000602082015250565b7f4552433732313a20617070726f76652063616c6c6572206973206e6f7420746f60008201527f6b656e206f776e6572206f7220617070726f76656420666f7220616c6c000000602082015250565b612a688161249c565b8114612a7357600080fd5b50565b612a7f816124ae565b8114612a8a57600080fd5b50565b612a96816124ba565b8114612aa157600080fd5b50565b612aad81612506565b8114612ab857600080fd5b5056fea264697066735822122093629522c9384b38811121ad0aa4b0fb0b4a617a2b90803ed09cdcfbc0d493a764736f6c63430008040033",
  "linkReferences": {},
  "deployedLinkReferences": {}
}